:100000000C9434000C943E000C943E000C943E0082
:100010000C943E000C943E000C943E000C943E0068
:100020000C943E000C943E000C943E000C943E0058
:100030000C943E000C943E000C943E000C943E0048
:100040000C943E000C943E000C943E000C943E0038
:100050000C943E000C943E000C943E000C943E0028
:100060000C943E000C943E0011241FBECFEFD8E04C
:10007000DEBFCDBF0E9440000C9464000C940000D1
:10008000CFEFD8E0DEBFCDBF0E944B000E945500ED
:100090000E945A00FBCF11241FBE80E880936100AC
:1000A00010926100259A2D98089585B190E28927D4
:1000B00085B908950AE018EC28EC2A95F1F71A950D
:0C00C000D9F70A95C1F70895F894FFCF16
:00000001FF
