:100000000C9434000C943E000C943E000C943E0082
:100010000C943E000C943E000C943E000C943E0068
:100020000C943E000C943E000C943E000C943E0058
:100030000C943E000C943E000C943E000C943E0048
:100040000C943E000C943E000C943E000C943E0038
:100050000C943E000C943E000C943E000C943E0028
:100060000C943E000C943E0011241FBECFEFD8E04C
:10007000DEBFCDBF0E9440000C9476000C940000BF
:10008000CFEFD8E0DEBFCDBF0E944B000E945700EB
:100090000E946E00FBCF11241FBE80E88093610098
:1000A00010926100249A2C980E946700089585B1EF
:1000B00090E1892785B9089509E216E928E72A958C
:1000C000F1F71A95E1F70A95D1F70000089503E0DA
:1000D00005BD01E005BB00E806BD089505B301FFBD
:1000E000FDCF01E005BB00E806BD0895F894FFCF01
:00000001FF
